:020000040800F2
:10000000002800203903000821030008230300080A
:10001000250300082703000829030008000000004A
:100020000000000000000000000000002B0300089A
:100030002D030008000000002F0300083103000812
:100040008103000881030008810300088103000880
:100050008103000881030008810300088103000870
:100060008103000881030008810300088103000860
:100070008103000881030008810300088103000850
:100080008103000881030008810300088103000840
:100090008103000881030008810300088103000830
:1000A0008103000881030008810300088103000820
:1000B000810300088103000800000000810300089C
:1000C0008103000800000000000000008103000818
:1000D0000000000081030008810300080000000008
:1000E000810300088103000881030008000000006C
:1000F0000000000000000000000000000000000000
:0C01000000000000000000005FF808F1A3
:10010C0010B5054C237833B9044B13B10448AFF345
:10011C0000800123237010BD0C00002000000000A3
:10012C00B40B000808B5034B1BB103490348AFF3EC
:10013C00008008BD0000000010000020B40B000877
:10014C0070B505460C460E4E012230460F2100F0CC
:10015C009BFA0C4B30462B440B4D13F8011C002220
:10016C0000F092FA28460022FF2100F08DFA074B8E
:10017C002846195D0122BDE8704000F085BA00BF29
:10018C00000C0140D60B000800080140CC0B000805
:10019C004FF47A7170B590FBF1F105460120FFF731
:1001AC00CFFF012000F030F964230A2495FBF3F310
:1001BC0093FBF4F1022004FB1131FFF7C1FF012086
:1001CC0000F022F995FBF4F696FBF4F1032004FB06
:1001DC001161FFF7B5FF012000F016F9042004FBB4
:1001EC001651FFF7ADFFBDE87040012000F00CB9CF
:1001FC0000B591B02422002107A800F0CDFC1422F8
:10020C00002101A800F0C8FC022301210693102351
:10021C0006A8CDE90A1300F03DFA014608B172B602
:10022C00FEE70F23CDE90300CDE90130059001A8CD
:10023C0000F0F2FB08B172B6FEE711B05DF804FBFA
:10024C007FB500F0BDF8FFF7D3FF1022002102A804
:10025C0000F0A2FC1B4BFF219A691B4842F00402E0
:10026C009A619A69012602F004020092009A9A6936
:10027C00002542F008029A619B69002203F00803F2
:10028C000193019B00F000FA00220F210F4800F0AF
:10029C00FBF90224FF230C4802A9CDE90236CDE973
:1002AC00045400F01BF90F23084802A9CDE90236CB
:1002BC00CDE9045400F012F940F67910FFF768FF0D
:1002CC00FAE700BF0010024000080140000C01409A
:1002DC000E4B82B09A6942F001029A619A6902F05F
:1002EC0001020092009ADA6942F08052DA61DB690D
:1002FC00074A03F080530193019B536823F0E0639A
:10030C0043F00073536002B0704700BF001002400E
:10031C0000000140FEE7FEE7FEE7FEE7FEE7704760
:10032C007047704700F05EB870470000FFF7FCFFA5
:10033C000B480C490C4A002302E0D458C450043337
:10034C00C4188C42F9D3094A094C002301E013600C
:10035C000432A242FBD300F0FBFBFFF771FF7047A6
:10036C00000000200C000020040C00080C000020F1
:10037C002C000020FEE7000038B50E4B054618781F
:10038C004FF47A73B3FBF0F30B4A1068B0FBF3F045
:10039C0000F090F8044658B90F2D09D802462946AA
:1003AC004FF0FF3000F054F82046044B1D6038BD70
:1003BC000120FCE7040000200000002008000020C1
:1003CC00074A08B51368032043F01003136000F0CC
:1003DC002DF80F20FFF7D0FFFFF77AFF002008BDA4
:1003EC0000200240034A044B11681B780B44136035
:1003FC00704700BF2800002004000020014B186843
:10040C00704700BF2800002038B50446FFF7F6FF00
:10041C000546631C1EBF044B1B78E418FFF7EEFF68
:10042C00431BA342FAD338BD040000200749030242
:10043C00CA6803F4E06322F4E0621204120C134362
:10044C0043F0BF6343F40033CB60704700ED00E032
:10045C00164B30B5DC68C4F30224C4F10703251D28
:10046C00042B28BF0423062D4FF0FF3598BF002422
:10047C0005FA03F388BF033C21EA0303A34005FA02
:10048C0004F422EA0402002843EA0203ACBF00F1A0
:10049C006040074A4FEA0313DBB2ABBF00F5614083
:1004AC0000F00F0080F80033135430BD00ED00E075
:1004BC0014ED00E00138B0F1807F0BD24FF0E02357
:1004CC00F021054A586182F8231000200722986118
:1004DC001A6170470120704700ED00E02DE9F74FDD
:1004EC0000221646614F624BDFF888C1DFF888E1C5
:1004FC000D6835FA06F402D103B0BDE8F08F4FF069
:10050C00010808FA06F805EA080438EA050577D167
:10051C004D68032D07D8013D022D00F28280DFE8E3
:10052C0005F092979D00122D00F095806AD8112D40
:10053C0000F08B80FF2C98BF82464FF00F0988BFCC
:10054C0000F1040A4FEA8605DAF8008088BF203DE6
:10055C0009FA05FB28EA0B0802FA05F548EA050535
:10056C00CAF80050D1F804A01AF0805F48D0BD69D9
:10057C0026F0030845F00105BD61BD6908F180480E
:10058C0005F00105019508F5803806F0030B019D77
:10059C004FEA8B0BD8F8085009FA0BF925EA090930
:1005AC00364DA8425ED005F58065A8425CD005F5B5
:1005BC008065A8420CBF0225032505FA0BF545EA18
:1005CC000905C8F808509D681AF4801F14BF25430C
:1005DC00A5439D60DD681AF4001F14BF2543A54395
:1005EC00DD605D681AF4003F14BF2543A5435D60D0
:1005FC001D681AF4803F14BF2C4325EA04041C60C8
:10060C00013675E7DFF878904D450AD015D8754559
:10061C0007D0A9F580394D4503D0A9F580194D4572
:10062C0088D18A68E2B1012A08BFC0F810804FF067
:10063C00080218BFC0F814807CE7DFF848904D45DD
:10064C00EFD06545ECE7CA6874E7CA68043271E715
:10065C00CA6808326EE7CA680C326BE7002269E799
:10066C00042267E70025A8E70125A6E70010024051
:10067C00000401400000321000001210000801407C
:10068C0000002210000031100AB10161704709040A
:10069C00FBE700002DE9F341054638B30368DB079F
:1006AC0010D42B689F075ED42B68190700F1958036
:1006BC002B685A0700F1C180E869002840F02C81B2
:1006CC00002029E0904C636803F00C03042B07D046
:1006DC00636803F00C03082B0AD16368DE0307D5AB
:1006EC0023689C03DDD56B68002BDAD1012013E065
:1006FC006B68B3F5803F12D1236843F480332360D9
:10070C00FFF77CFE064623689803CAD4FFF776FEF3
:10071C00801B6428F7D9032002B0BDE8F0819BB997
:10072C00236823F480332360236823F4802323601D
:10073C00FFF764FE064623689903B2D5FFF75EFE09
:10074C00801B6428F7D9E6E7B3F5A02F236803D103
:10075C0043F480232360CFE723F4803323602368A2
:10076C0023F48023CBE7684C636813F00C0F07D09D
:10077C00636803F00C03082B10D16368DA030DD403
:10078C0023689B0702D52B69012BAFD123686A69BB
:10079C0023F0F80343EAC203236085E72A695B4B25
:1007AC006AB101221A60FFF729FE064623689F07EB
:1007BC00ECD4FFF723FE801B0228F7D9ABE71A60B5
:1007CC00FFF71CFE0646236898077FF56DAFFFF711
:1007DC0015FE801B0228F6D99DE7AA694A4E4B4BA1
:1007EC00E2B10122C3F88024FFF708FE0446736AC5
:1007FC009B070DD54FF4FA52454B1B68B3FBF2F334
:10080C00019300BF019B5A1E0192002BF9D14FE7B7
:10081C00FFF7F4FD001B0228E9D97CE7C3F880241C
:10082C00FFF7ECFD0446736A9F077FF541AFFFF7B6
:10083C00E5FD001B0228F6D96DE7334CE369D800BF
:10084C0024D40127E36943F08053E361E36903F0A7
:10085C0080530093009B2F4E3368D90518D5EB6855
:10086C00012B26D1236A43F001032362FFF7C6FD57
:10087C0041F288380646236A9B073FD5002F3FF488
:10088C001BAFE36923F08053E36115E70027E2E730
:10089C00336843F480733360FFF7B0FD80463368F0
:1008AC00DA05DCD4FFF7AAFDA0EB08006428F6D922
:1008BC0031E7ABB9236A41F2883823F00103236294
:1008CC00236A23F004032362FFF798FD0646236A8C
:1008DC009807D3D5FFF792FD801B4045F7D91AE74F
:1008EC00052B236A03D143F004032362BAE723F0F8
:1008FC0001032362236A23F00403B6E7FFF77EFDAE
:10090C00801B4045B7D906E7001002400000424268
:10091C0000000020007000402A4C636803F00C03B8
:10092C00082B3ED00022284B02281A662CD1FFF748
:10093C0065FD06462368990120D42B6AB3F5803FE8
:10094C0005D16268A96822F400320A436260696AC0
:10095C0062680B4322F474121343012263601A4B36
:10096C001A66FFF74BFD054623689A013FF5A8AEC2
:10097C00FFF744FD401B0228F6D9CCE6FFF73EFDFD
:10098C00801B0228D6D9C6E6FFF738FD054623683A
:10099C009B017FF595AEFFF731FD401B0228F6D980
:1009AC00B9E601283FF4B8AE63682A6A03F48031D3
:1009BC0091427FF49BAE6A6A03F4701393423FF446
:1009CC007FAE93E600100240000042420D4A53688D
:1009DC0003F00C01082912D10B48C3F38341DB034C
:1009EC00405C09D55368094AC3F340435043084A55
:1009FC00D35CB0FBF3F07047064B58437047034889
:100A0C00704700BF00100240EA0B000800127A0089
:100A1C00FA0B000800093D002DE9F0410D46044693
:100A2C0010B90120BDE8F081444A136803F00703B4
:100A3C008B4228D321688E0730D4CA0743D43F4A4F
:100A4C00136803F00703AB4265D822683C4D12F0E3
:100A5C00040F6CD1130706D56B68226923F460531D
:100A6C0043EAC2036B60FFF7B1FF6B68354AC3F30F
:100A7C000313D35CD840344B1860344B1868FFF721
:100A8C007BFC0020CEE7136823F007030B431360B5
:100A9C00136803F007038B42C3D1CBE7284B11F04B
:100AAC00040F1EBF5A6842F4E0625A60080742BF46
:100ABC005A6842F460525A605A68A06822F0F002F8
:100ACC0002435A60B9E762681D4E012A33681AD195
:100ADC0013F4003FA5D0736841F2883823F0030368
:100AEC0013437360FFF78AFC07467368626803F070
:100AFC000C03B3EB820FA2D0FFF780FCC01B404568
:100B0C00F3D903208EE7022A02D113F0007FE1E72C
:100B1C0013F0020FDEE7136823F007032B43136077
:100B2C00136803F00703AB427FF47BAF8DE76B6870
:100B3C00E16823F4E0630B436B608BE70020024019
:100B4C0000100240DA0B0008000000200800002012
:100B5C0070B500260C4D0D4C641BA410A64209D197
:100B6C0000F022F800260A4D0A4C641BA410A64281
:100B7C0005D170BD55F8043B98470136EEE755F8A2
:100B8C00043B98470136F2E7FC0B0008FC0B00080D
:100B9C00FC0B0008000C000803460244934200D1F1
:100BAC00704703F8011BF9E7F8B500BFF8BC08BCA7
:100BBC009E467047F8B500BFF8BC08BC9E4670470F
:100BCC003F065B4F666D7D077F6F010204080000D6
:100BDC0000000000000001020304060708090203DC
:100BEC000405060708090A0B0C0D0E0F1010010264
:040BFC0031010008BB
:040C00000D010008DA
:0C0C04000024F4000100000010000000BB
:0400000508000339B3
:00000001FF
